{
  "_format": "hh-sol-artifact-1",
  "contractName": "TokenizedBallot",
  "sourceName": "contracts/TokenizedBallot.sol",
  "abi": [
    {
      "inputs": [
        {
          "internalType": "bytes32[]",
          "name": "_proposalNames",
          "type": "bytes32[]"
        },
        {
          "internalType": "address",
          "name": "_tokenContract",
          "type": "address"
        },
        {
          "internalType": "uint256",
          "name": "_targetBlockNumber",
          "type": "uint256"
        }
      ],
      "stateMutability": "nonpayable",
      "type": "constructor"
    },
    {
      "inputs": [
        {
          "internalType": "uint256",
          "name": "",
          "type": "uint256"
        }
      ],
      "name": "proposals",
      "outputs": [
        {
          "internalType": "bytes32",
          "name": "name",
          "type": "bytes32"
        },
        {
          "internalType": "uint256",
          "name": "voteCount",
          "type": "uint256"
        }
      ],
      "stateMutability": "view",
      "type": "function"
    },
    {
      "inputs": [],
      "name": "targetBlockNumber",
      "outputs": [
        {
          "internalType": "uint256",
          "name": "",
          "type": "uint256"
        }
      ],
      "stateMutability": "view",
      "type": "function"
    },
    {
      "inputs": [],
      "name": "tokenContract",
      "outputs": [
        {
          "internalType": "contract IMyToken",
          "name": "",
          "type": "address"
        }
      ],
      "stateMutability": "view",
      "type": "function"
    },
    {
      "inputs": [
        {
          "internalType": "uint256",
          "name": "proposal",
          "type": "uint256"
        },
        {
          "internalType": "uint256",
          "name": "amount",
          "type": "uint256"
        }
      ],
      "name": "vote",
      "outputs": [],
      "stateMutability": "nonpayable",
      "type": "function"
    },
    {
      "inputs": [
        {
          "internalType": "address",
          "name": "",
          "type": "address"
        }
      ],
      "name": "votesCast",
      "outputs": [
        {
          "internalType": "uint256",
          "name": "",
          "type": "uint256"
        }
      ],
      "stateMutability": "view",
      "type": "function"
    },
    {
      "inputs": [],
      "name": "winnerName",
      "outputs": [
        {
          "internalType": "bytes32",
          "name": "winnerName_",
          "type": "bytes32"
        }
      ],
      "stateMutability": "view",
      "type": "function"
    },
    {
      "inputs": [],
      "name": "winningProposal",
      "outputs": [
        {
          "internalType": "uint256",
          "name": "winningProposal_",
          "type": "uint256"
        }
      ],
      "stateMutability": "view",
      "type": "function"
    }
  ],
  "bytecode": "0x60806040523480156200001157600080fd5b5060405162000bb738038062000bb78339818101604052810190620000379190620003c1565b816000806101000a81548173ffffffffffffffffffffffffffffffffffffffff021916908373ffffffffffffffffffffffffffffffffffffffff16021790555080431015620000bd576040517f08c379a0000000000000000000000000000000000000000000000000000000008152600401620000b4906200049d565b60405180910390fd5b8060028190555060005b8351811015620001535760016040518060400160405280868481518110620000f457620000f3620004bf565b5b6020026020010151815260200160008152509080600181540180825580915050600190039060005260206000209060020201600090919091909150600082015181600001556020820151816001015550508080600101915050620000c7565b50505050620004ee565b6000604051905090565b600080fd5b600080fd5b600080fd5b6000601f19601f8301169050919050565b7f4e487b7100000000000000000000000000000000000000000000000000000000600052604160045260246000fd5b620001c18262000176565b810181811067ffffffffffffffff82111715620001e357620001e262000187565b5b80604052505050565b6000620001f86200015d565b9050620002068282620001b6565b919050565b600067ffffffffffffffff82111562000229576200022862000187565b5b602082029050602081019050919050565b600080fd5b6000819050919050565b62000254816200023f565b81146200026057600080fd5b50565b600081519050620002748162000249565b92915050565b6000620002916200028b846200020b565b620001ec565b90508083825260208201905060208402830185811115620002b757620002b66200023a565b5b835b81811015620002e45780620002cf888262000263565b845260208401935050602081019050620002b9565b5050509392505050565b600082601f83011262000306576200030562000171565b5b8151620003188482602086016200027a565b91505092915050565b600073ffffffffffffffffffffffffffffffffffffffff82169050919050565b60006200034e8262000321565b9050919050565b620003608162000341565b81146200036c57600080fd5b50565b600081519050620003808162000355565b92915050565b6000819050919050565b6200039b8162000386565b8114620003a757600080fd5b50565b600081519050620003bb8162000390565b92915050565b600080600060608486031215620003dd57620003dc62000167565b5b600084015167ffffffffffffffff811115620003fe57620003fd6200016c565b5b6200040c86828701620002ee565b93505060206200041f868287016200036f565b92505060406200043286828701620003aa565b9150509250925092565b600082825260208201905092915050565b7f43616e6e6f7420766f7465206f6e20706173742070726f706f73616c73000000600082015250565b600062000485601d836200043c565b915062000492826200044d565b602082019050919050565b60006020820190508181036000830152620004b88162000476565b9050919050565b7f4e487b7100000000000000000000000000000000000000000000000000000000600052603260045260246000fd5b6106b980620004fe6000396000f3fe608060405234801561001057600080fd5b506004361061007d5760003560e01c8063609ff1bd1161005b578063609ff1bd146100ef57806379e170801461010d578063b384abef1461013d578063e2ba53f0146101595761007d565b8063013cf08b146100825780632a8cd29e146100b357806355a373d6146100d1575b600080fd5b61009c600480360381019061009791906103c4565b610177565b6040516100aa929190610419565b60405180910390f35b6100bb6101ab565b6040516100c89190610442565b60405180910390f35b6100d96101b1565b6040516100e691906104dc565b60405180910390f35b6100f76101d5565b6040516101049190610442565b60405180910390f35b61012760048036038101906101229190610535565b610257565b6040516101349190610442565b60405180910390f35b61015760048036038101906101529190610562565b61026f565b005b610161610355565b60405161016e91906105a2565b60405180910390f35b6001818154811061018757600080fd5b90600052602060002090600202016000915090508060000154908060010154905082565b60025481565b60008054906101000a900473ffffffffffffffffffffffffffffffffffffffff1681565b6000806000905060005b600180549050811015610252578160018281548110610201576102006105bd565b5b9060005260206000209060020201600101541115610245576001818154811061022d5761022c6105bd565b5b90600052602060002090600202016001015491508092505b80806001019150506101df565b505090565b60036020528060005260406000206000915090505481565b6000600360003373ffffffffffffffffffffffffffffffffffffffff1673ffffffffffffffffffffffffffffffffffffffff16815260200190815260200160002054826102bc919061061b565b905080600184815481106102d3576102d26105bd565b5b906000526020600020906002020160010160008282546102f3919061064f565b9250508190555080600360003373ffffffffffffffffffffffffffffffffffffffff1673ffffffffffffffffffffffffffffffffffffffff1681526020019081526020016000206000828254610349919061064f565b92505081905550505050565b600060016103616101d5565b81548110610372576103716105bd565b5b906000526020600020906002020160000154905090565b600080fd5b6000819050919050565b6103a18161038e565b81146103ac57600080fd5b50565b6000813590506103be81610398565b92915050565b6000602082840312156103da576103d9610389565b5b60006103e8848285016103af565b91505092915050565b6000819050919050565b610404816103f1565b82525050565b6104138161038e565b82525050565b600060408201905061042e60008301856103fb565b61043b602083018461040a565b9392505050565b6000602082019050610457600083018461040a565b92915050565b600073ffffffffffffffffffffffffffffffffffffffff82169050919050565b6000819050919050565b60006104a261049d6104988461045d565b61047d565b61045d565b9050919050565b60006104b482610487565b9050919050565b60006104c6826104a9565b9050919050565b6104d6816104bb565b82525050565b60006020820190506104f160008301846104cd565b92915050565b60006105028261045d565b9050919050565b610512816104f7565b811461051d57600080fd5b50565b60008135905061052f81610509565b92915050565b60006020828403121561054b5761054a610389565b5b600061055984828501610520565b91505092915050565b6000806040838503121561057957610578610389565b5b6000610587858286016103af565b9250506020610598858286016103af565b9150509250929050565b60006020820190506105b760008301846103fb565b92915050565b7f4e487b7100000000000000000000000000000000000000000000000000000000600052603260045260246000fd5b7f4e487b7100000000000000000000000000000000000000000000000000000000600052601160045260246000fd5b60006106268261038e565b91506106318361038e565b9250828203905081811115610649576106486105ec565b5b92915050565b600061065a8261038e565b91506106658361038e565b925082820190508082111561067d5761067c6105ec565b5b9291505056fea264697066735822122028ce9dcaa4511b8b2f5e44d9673a5bce35d6b0b3c2cad24fde397e0ee590485464736f6c63430008180033",
  "linkReferences": {},
  "deployedLinkReferences": {}
}